{
  "_format": "hh-sol-artifact-1",
  "contractName": "Staking",
  "sourceName": "contracts/Staking.sol",
  "abi": [
    {
      "inputs": [
        {
          "internalType": "address",
          "name": "_tokenA",
          "type": "address"
        },
        {
          "internalType": "address",
          "name": "_nftB",
          "type": "address"
        }
      ],
      "stateMutability": "nonpayable",
      "type": "constructor"
    },
    {
      "inputs": [
        {
          "internalType": "address",
          "name": "owner",
          "type": "address"
        }
      ],
      "name": "OwnableInvalidOwner",
      "type": "error"
    },
    {
      "inputs": [
        {
          "internalType": "address",
          "name": "account",
          "type": "address"
        }
      ],
      "name": "OwnableUnauthorizedAccount",
      "type": "error"
    },
    {
      "anonymous": false,
      "inputs": [
        {
          "indexed": true,
          "internalType": "address",
          "name": "previousOwner",
          "type": "address"
        },
        {
          "indexed": true,
          "internalType": "address",
          "name": "newOwner",
          "type": "address"
        }
      ],
      "name": "OwnershipTransferred",
      "type": "event"
    },
    {
      "anonymous": false,
      "inputs": [
        {
          "indexed": true,
          "internalType": "address",
          "name": "user",
          "type": "address"
        },
        {
          "indexed": false,
          "internalType": "enum Staking.ActionType",
          "name": "actionType",
          "type": "uint8"
        },
        {
          "indexed": false,
          "internalType": "uint256",
          "name": "totalAmount",
          "type": "uint256"
        },
        {
          "indexed": false,
          "internalType": "uint256[]",
          "name": "nftIds",
          "type": "uint256[]"
        },
        {
          "indexed": false,
          "internalType": "uint256",
          "name": "withdrawalFromRewards",
          "type": "uint256"
        },
        {
          "indexed": false,
          "internalType": "uint256",
          "name": "withdrawalFromStake",
          "type": "uint256"
        }
      ],
      "name": "StakeAction",
      "type": "event"
    },
    {
      "inputs": [],
      "name": "LOCK_PERIOD",
      "outputs": [
        {
          "internalType": "uint256",
          "name": "",
          "type": "uint256"
        }
      ],
      "stateMutability": "view",
      "type": "function"
    },
    {
      "inputs": [],
      "name": "NFT_MIN_STAKE_THRESHOLD",
      "outputs": [
        {
          "internalType": "uint256",
          "name": "",
          "type": "uint256"
        }
      ],
      "stateMutability": "view",
      "type": "function"
    },
    {
      "inputs": [],
      "name": "baseAnnualPercentageRate",
      "outputs": [
        {
          "internalType": "uint256",
          "name": "",
          "type": "uint256"
        }
      ],
      "stateMutability": "view",
      "type": "function"
    },
    {
      "inputs": [],
      "name": "claimReward",
      "outputs": [],
      "stateMutability": "nonpayable",
      "type": "function"
    },
    {
      "inputs": [
        {
          "internalType": "uint256[]",
          "name": "nftIds",
          "type": "uint256[]"
        }
      ],
      "name": "depositNFT",
      "outputs": [],
      "stateMutability": "nonpayable",
      "type": "function"
    },
    {
      "inputs": [
        {
          "internalType": "uint256",
          "name": "amount",
          "type": "uint256"
        }
      ],
      "name": "depositTokens",
      "outputs": [],
      "stateMutability": "nonpayable",
      "type": "function"
    },
    {
      "inputs": [],
      "name": "getStakeDetails",
      "outputs": [
        {
          "internalType": "uint256",
          "name": "totalStakedTokens",
          "type": "uint256"
        },
        {
          "internalType": "uint256",
          "name": "tokenStakeStartTimestamp",
          "type": "uint256"
        },
        {
          "internalType": "uint256",
          "name": "lockEndTimestamp",
          "type": "uint256"
        },
        {
          "internalType": "uint256",
          "name": "nftStakeStartTimestamp",
          "type": "uint256"
        },
        {
          "internalType": "uint256",
          "name": "lastActionTimestamp",
          "type": "uint256"
        },
        {
          "internalType": "uint256",
          "name": "totalMintedNFTs",
          "type": "uint256"
        },
        {
          "internalType": "uint256",
          "name": "effectiveAPR",
          "type": "uint256"
        },
        {
          "internalType": "uint256",
          "name": "stakedNFTCount",
          "type": "uint256"
        },
        {
          "internalType": "uint256",
          "name": "pendingRewards",
          "type": "uint256"
        }
      ],
      "stateMutability": "view",
      "type": "function"
    },
    {
      "inputs": [],
      "name": "getUserMintedNFTs",
      "outputs": [
        {
          "internalType": "uint256[]",
          "name": "",
          "type": "uint256[]"
        }
      ],
      "stateMutability": "view",
      "type": "function"
    },
    {
      "inputs": [],
      "name": "getUserStakedNFTs",
      "outputs": [
        {
          "internalType": "uint256[]",
          "name": "",
          "type": "uint256[]"
        }
      ],
      "stateMutability": "view",
      "type": "function"
    },
    {
      "inputs": [],
      "name": "nftB",
      "outputs": [
        {
          "internalType": "contract NFTB",
          "name": "",
          "type": "address"
        }
      ],
      "stateMutability": "view",
      "type": "function"
    },
    {
      "inputs": [],
      "name": "nftBonusAnnualPercentageRate",
      "outputs": [
        {
          "internalType": "uint256",
          "name": "",
          "type": "uint256"
        }
      ],
      "stateMutability": "view",
      "type": "function"
    },
    {
      "inputs": [],
      "name": "owner",
      "outputs": [
        {
          "internalType": "address",
          "name": "",
          "type": "address"
        }
      ],
      "stateMutability": "view",
      "type": "function"
    },
    {
      "inputs": [],
      "name": "renounceOwnership",
      "outputs": [],
      "stateMutability": "nonpayable",
      "type": "function"
    },
    {
      "inputs": [],
      "name": "tokenA",
      "outputs": [
        {
          "internalType": "contract TokenA",
          "name": "",
          "type": "address"
        }
      ],
      "stateMutability": "view",
      "type": "function"
    },
    {
      "inputs": [
        {
          "internalType": "address",
          "name": "newOwner",
          "type": "address"
        }
      ],
      "name": "transferOwnership",
      "outputs": [],
      "stateMutability": "nonpayable",
      "type": "function"
    },
    {
      "inputs": [
        {
          "internalType": "address",
          "name": "",
          "type": "address"
        },
        {
          "internalType": "uint256",
          "name": "",
          "type": "uint256"
        }
      ],
      "name": "userMintedNFTs",
      "outputs": [
        {
          "internalType": "uint256",
          "name": "",
          "type": "uint256"
        }
      ],
      "stateMutability": "view",
      "type": "function"
    },
    {
      "inputs": [
        {
          "internalType": "address",
          "name": "",
          "type": "address"
        },
        {
          "internalType": "uint256",
          "name": "",
          "type": "uint256"
        }
      ],
      "name": "userStakedNFTs",
      "outputs": [
        {
          "internalType": "uint256",
          "name": "",
          "type": "uint256"
        }
      ],
      "stateMutability": "view",
      "type": "function"
    },
    {
      "inputs": [
        {
          "internalType": "address",
          "name": "",
          "type": "address"
        }
      ],
      "name": "userStakes",
      "outputs": [
        {
          "internalType": "uint256",
          "name": "totalStakedTokens",
          "type": "uint256"
        },
        {
          "internalType": "uint256",
          "name": "tokenStakeStartTimestamp",
          "type": "uint256"
        },
        {
          "internalType": "uint256",
          "name": "lockEndTimestamp",
          "type": "uint256"
        },
        {
          "internalType": "uint256",
          "name": "nftStakeStartTimestamp",
          "type": "uint256"
        },
        {
          "internalType": "uint256",
          "name": "lastActionTimestamp",
          "type": "uint256"
        },
        {
          "internalType": "uint256",
          "name": "totalMintedNFTs",
          "type": "uint256"
        },
        {
          "internalType": "uint256",
          "name": "effectiveAPR",
          "type": "uint256"
        },
        {
          "internalType": "uint256",
          "name": "stakedNFTCount",
          "type": "uint256"
        },
        {
          "internalType": "uint256",
          "name": "pendingRewards",
          "type": "uint256"
        }
      ],
      "stateMutability": "view",
      "type": "function"
    },
    {
      "inputs": [
        {
          "internalType": "uint256[]",
          "name": "nftIds",
          "type": "uint256[]"
        }
      ],
      "name": "withdrawNFT",
      "outputs": [],
      "stateMutability": "nonpayable",
      "type": "function"
    },
    {
      "inputs": [
        {
          "internalType": "uint256",
          "name": "amount",
          "type": "uint256"
        }
      ],
      "name": "withdrawTokens",
      "outputs": [],
      "stateMutability": "nonpayable",
      "type": "function"
    }
  ],
  "bytecode": "0x60806040523480156200001157600080fd5b506040516200360b3803806200360b833981810160405281019062000037919062000277565b33600073ffffffffffffffffffffffffffffffffffffffff168173ffffffffffffffffffffffffffffffffffffffff1603620000ad5760006040517f1e4fbdf7000000000000000000000000000000000000000000000000000000008152600401620000a49190620002cf565b60405180910390fd5b620000be816200014960201b60201c565b5081600160006101000a81548173ffffffffffffffffffffffffffffffffffffffff021916908373ffffffffffffffffffffffffffffffffffffffff16021790555080600260006101000a81548173ffffffffffffffffffffffffffffffffffffffff021916908373ffffffffffffffffffffffffffffffffffffffff1602179055505050620002ec565b60008060009054906101000a900473ffffffffffffffffffffffffffffffffffffffff169050816000806101000a81548173ffffffffffffffffffffffffffffffffffffffff021916908373ffffffffffffffffffffffffffffffffffffffff1602179055508173ffffffffffffffffffffffffffffffffffffffff168173ffffffffffffffffffffffffffffffffffffffff167f8be0079c531659141344cd1fd0a4f28419497f9722a3daafe3b4186f6b6457e060405160405180910390a35050565b600080fd5b600073ffffffffffffffffffffffffffffffffffffffff82169050919050565b60006200023f8262000212565b9050919050565b620002518162000232565b81146200025d57600080fd5b50565b600081519050620002718162000246565b92915050565b600080604083850312156200029157620002906200020d565b5b6000620002a18582860162000260565b9250506020620002b48582860162000260565b9150509250929050565b620002c98162000232565b82525050565b6000602082019050620002e66000830184620002be565b92915050565b61330f80620002fc6000396000f3fe608060405234801561001057600080fd5b506004361061012c5760003560e01c8063547d81bc116100ad57806392ef42581161007157806392ef425814610305578063aa2d0a081461032b578063b88a802f1461035b578063dd49756e14610365578063f2fde38b146103815761012c565b8063547d81bc14610269578063715018a6146102875780638b66f744146102915780638da5cb5b146102af5780638da7ad23146102cd5761012c565b80631f942c47116100f45780631f942c47146101d7578063315a095d146101f557806332e2cea8146102115780634b0b3dc71461022f57806351f85bfe1461024b5761012c565b80630a72298e146101315780630fc63d101461014d5780630fdb92dd1461016b5780631820cabb146101895780631b2101f3146101a7575b600080fd5b61014b600480360381019061014691906121b2565b61039d565b005b610155610733565b604051610162919061227e565b60405180910390f35b610173610759565b60405161018091906122b2565b60405180910390f35b610191610767565b60405161019e91906122b2565b60405180910390f35b6101c160048036038101906101bc9190612337565b61076c565b6040516101ce91906122b2565b60405180910390f35b6101df61079d565b6040516101ec9190612435565b60405180910390f35b61020f600480360381019061020a9190612457565b610832565b005b610219610d1a565b60405161022691906124a5565b60405180910390f35b610249600480360381019061024491906121b2565b610d40565b005b6102536110a3565b60405161026091906122b2565b60405180910390f35b6102716110a9565b60405161027e91906122b2565b60405180910390f35b61028f6110ae565b005b6102996110c2565b6040516102a69190612435565b60405180910390f35b6102b7611157565b6040516102c491906124cf565b60405180910390f35b6102e760048036038101906102e291906124ea565b611180565b6040516102fc99989796959493929190612517565b60405180910390f35b61030d6111ce565b60405161032299989796959493929190612517565b60405180910390f35b61034560048036038101906103409190612337565b611286565b60405161035291906122b2565b60405180910390f35b6103636112b7565b005b61037f600480360381019061037a9190612457565b6115fd565b005b61039b600480360381019061039691906124ea565b6119d0565b005b600082829050116103e3576040517f08c379a00000000000000000000000000000000000000000000000000000000081526004016103da90612601565b60405180910390fd5b6103ec33611a56565b6000600360003373ffffffffffffffffffffffffffffffffffffffff1673ffffffffffffffffffffffffffffffffffffffff168152602001908152602001600020905060005b8383905081101561067357600084848381811061045257610451612621565b5b9050602002013590503373ffffffffffffffffffffffffffffffffffffffff16600260009054906101000a900473ffffffffffffffffffffffffffffffffffffffff1673ffffffffffffffffffffffffffffffffffffffff16636352211e836040518263ffffffff1660e01b81526004016104cd91906122b2565b602060405180830381865afa1580156104ea573d6000803e3d6000fd5b505050506040513d601f19601f8201168201806040525081019061050e9190612665565b73ffffffffffffffffffffffffffffffffffffffff1614610564576040517f08c379a000000000000000000000000000000000000000000000000000000000815260040161055b906126de565b60405180910390fd5b600260009054906101000a900473ffffffffffffffffffffffffffffffffffffffff1673ffffffffffffffffffffffffffffffffffffffff166323b872dd3330846040518463ffffffff1660e01b81526004016105c3939291906126fe565b600060405180830381600087803b1580156105dd57600080fd5b505af11580156105f1573d6000803e3d6000fd5b50505050600560003373ffffffffffffffffffffffffffffffffffffffff1673ffffffffffffffffffffffffffffffffffffffff1681526020019081526020016000208190806001815401808255809150506001900390600052602060002001600090919091909150556106653382611add565b508080600101915050610432565b50428160030181905550828290508160070160008282546106949190612764565b92505081905550828290508160050160008282546106b29190612798565b925050819055506106c233611c1f565b81600601819055504281600401819055503373ffffffffffffffffffffffffffffffffffffffff167fe10bcb358472cb6410e66070f35857744e4c5308bf597e2e00cf102bd62c9f52600360008686600080604051610726969594939291906128e8565b60405180910390a2505050565b600160009054906101000a900473ffffffffffffffffffffffffffffffffffffffff1681565b69d3c21bcecceda100000081565b603c81565b6004602052816000526040600020818154811061078857600080fd5b90600052602060002001600091509150505481565b6060600560003373ffffffffffffffffffffffffffffffffffffffff1673ffffffffffffffffffffffffffffffffffffffff16815260200190815260200160002080548060200260200160405190810160405280929190818152602001828054801561082857602002820191906000526020600020905b815481526020019060010190808311610814575b5050505050905090565b6000600360003373ffffffffffffffffffffffffffffffffffffffff1673ffffffffffffffffffffffffffffffffffffffff168152602001908152602001600020905060008160000154116108bc576040517f08c379a00000000000000000000000000000000000000000000000000000000081526004016108b390612990565b60405180910390fd5b8060020154421015610903576040517f08c379a00000000000000000000000000000000000000000000000000000000081526004016108fa906129fc565b60405180910390fd5b61090c33611a56565b600061091733611d06565b8260080154836000015461092b9190612764565b6109359190612764565b90508281101561097a576040517f08c379a000000000000000000000000000000000000000000000000000000000815260040161097190612a8e565b60405180910390fd5b600080849050848460080154106109ae578484600801600082825461099f9190612798565b92505081905550849150610b8b565b836008015491506000846008018190555081816109cb9190612798565b905080600160009054906101000a900473ffffffffffffffffffffffffffffffffffffffff1673ffffffffffffffffffffffffffffffffffffffff166370a08231306040518263ffffffff1660e01b8152600401610a2991906124cf565b602060405180830381865afa158015610a46573d6000803e3d6000fd5b505050506040513d601f19601f82011682018060405250810190610a6a9190612ac3565b1015610aab576040517f08c379a0000000000000000000000000000000000000000000000000000000008152600401610aa290612b62565b60405180910390fd5b600160009054906101000a900473ffffffffffffffffffffffffffffffffffffffff1673ffffffffffffffffffffffffffffffffffffffff1663a9059cbb33836040518363ffffffff1660e01b8152600401610b08929190612b82565b6020604051808303816000875af1158015610b27573d6000803e3d6000fd5b505050506040513d601f19601f82011682018060405250810190610b4b9190612be3565b610b8a576040517f08c379a0000000000000000000000000000000000000000000000000000000008152600401610b8190612c5c565b60405180910390fd5b5b600160009054906101000a900473ffffffffffffffffffffffffffffffffffffffff1673ffffffffffffffffffffffffffffffffffffffff166315490ebb33846040518363ffffffff1660e01b8152600401610be8929190612b82565b6020604051808303816000875af1158015610c07573d6000803e3d6000fd5b505050506040513d601f19601f82011682018060405250810190610c2b9190612be3565b610c6a576040517f08c379a0000000000000000000000000000000000000000000000000000000008152600401610c6190612cc8565b60405180910390fd5b4284600401819055503373ffffffffffffffffffffffffffffffffffffffff167fe10bcb358472cb6410e66070f35857744e4c5308bf597e2e00cf102bd62c9f52600187600067ffffffffffffffff811115610cc957610cc8612ce8565b5b604051908082528060200260200182016040528015610cf75781602001602082028036833780820191505090505b508686604051610d0b959493929190612d17565b60405180910390a25050505050565b600260009054906101000a900473ffffffffffffffffffffffffffffffffffffffff1681565b60008282905011610d86576040517f08c379a0000000000000000000000000000000000000000000000000000000008152600401610d7d90612dbd565b60405180910390fd5b610d8f33611a56565b6000600360003373ffffffffffffffffffffffffffffffffffffffff1673ffffffffffffffffffffffffffffffffffffffff168152602001908152602001600020905060005b8383905081101561100a576000848483818110610df557610df4612621565b5b905060200201359050610e083382611e20565b610e47576040517f08c379a0000000000000000000000000000000000000000000000000000000008152600401610e3e90612e29565b60405180910390fd5b6000600560003373ffffffffffffffffffffffffffffffffffffffff1673ffffffffffffffffffffffffffffffffffffffff168152602001908152602001600020905060005b8180549050811015610f4f5782828281548110610ead57610eac612621565b5b906000526020600020015403610f42578160018380549050610ecf9190612798565b81548110610ee057610edf612621565b5b9060005260206000200154828281548110610efe57610efd612621565b5b906000526020600020018190555081805480610f1d57610f1c612e49565b5b60019003818190600052602060002001600090559055610f3d3384611f05565b610f4f565b8080600101915050610e8d565b50836007016000815480929190610f6590612e78565b9190505550600260009054906101000a900473ffffffffffffffffffffffffffffffffffffffff1673ffffffffffffffffffffffffffffffffffffffff166323b872dd3033856040518463ffffffff1660e01b8152600401610fc9939291906126fe565b600060405180830381600087803b158015610fe357600080fd5b505af1158015610ff7573d6000803e3d6000fd5b5050505050508080600101915050610dd5565b50828290508160050160008282546110229190612764565b9250508190555042816004018190555061103b33611c1f565b81600601819055503373ffffffffffffffffffffffffffffffffffffffff167fe10bcb358472cb6410e66070f35857744e4c5308bf597e2e00cf102bd62c9f52600460008686600080604051611096969594939291906128e8565b60405180910390a2505050565b61032081565b60c881565b6110b6611f6f565b6110c06000611ff6565b565b6060600460003373ffffffffffffffffffffffffffffffffffffffff1673ffffffffffffffffffffffffffffffffffffffff16815260200190815260200160002080548060200260200160405190810160405280929190818152602001828054801561114d57602002820191906000526020600020905b815481526020019060010190808311611139575b5050505050905090565b60008060009054906101000a900473ffffffffffffffffffffffffffffffffffffffff16905090565b60036020528060005260406000206000915090508060000154908060010154908060020154908060030154908060040154908060050154908060060154908060070154908060080154905089565b600080600080600080600080600080600360003373ffffffffffffffffffffffffffffffffffffffff1673ffffffffffffffffffffffffffffffffffffffff1681526020019081526020016000209050600061122933611d06565b82600801546112389190612764565b905081600001548260010154836002015484600301548560040154866005015461126133611c1f565b8860070154889a509a509a509a509a509a509a509a509a505050909192939495969798565b600560205281600052604060002081815481106112a257600080fd5b90600052602060002001600091509150505481565b6000600360003373ffffffffffffffffffffffffffffffffffffffff1673ffffffffffffffffffffffffffffffffffffffff16815260200190815260200160002090508060020154421015611341576040517f08c379a000000000000000000000000000000000000000000000000000000000815260040161133890612eed565b60405180910390fd5b600061134c33611d06565b905060008111611391576040517f08c379a000000000000000000000000000000000000000000000000000000000815260040161138890612f59565b60405180910390fd5b80600160009054906101000a900473ffffffffffffffffffffffffffffffffffffffff1673ffffffffffffffffffffffffffffffffffffffff166370a08231306040518263ffffffff1660e01b81526004016113ed91906124cf565b602060405180830381865afa15801561140a573d6000803e3d6000fd5b505050506040513d601f19601f8201168201806040525081019061142e9190612ac3565b101561146f576040517f08c379a000000000000000000000000000000000000000000000000000000000815260040161146690612fc5565b60405180910390fd5b600160009054906101000a900473ffffffffffffffffffffffffffffffffffffffff1673ffffffffffffffffffffffffffffffffffffffff166315490ebb33836040518363ffffffff1660e01b81526004016114cc929190612b82565b6020604051808303816000875af11580156114eb573d6000803e3d6000fd5b505050506040513d601f19601f8201168201806040525081019061150f9190612be3565b61154e576040517f08c379a000000000000000000000000000000000000000000000000000000000815260040161154590613031565b60405180910390fd5b600082600801819055503373ffffffffffffffffffffffffffffffffffffffff167fe10bcb358472cb6410e66070f35857744e4c5308bf597e2e00cf102bd62c9f52600283600067ffffffffffffffff8111156115ae576115ad612ce8565b5b6040519080825280602002602001820160405280156115dc5781602001602082028036833780820191505090505b506000806040516115f1959493929190613051565b60405180910390a25050565b60008111611640576040517f08c379a0000000000000000000000000000000000000000000000000000000008152600401611637906130f7565b60405180910390fd5b61164933611a56565b6000600360003373ffffffffffffffffffffffffffffffffffffffff1673ffffffffffffffffffffffffffffffffffffffff168152602001908152602001600020905060008160000154036116a2574281600101819055505b600160009054906101000a900473ffffffffffffffffffffffffffffffffffffffff1673ffffffffffffffffffffffffffffffffffffffff166323b872dd3330856040518463ffffffff1660e01b8152600401611701939291906126fe565b6020604051808303816000875af1158015611720573d6000803e3d6000fd5b505050506040513d601f19601f820116820180604052508101906117449190612be3565b611783576040517f08c379a000000000000000000000000000000000000000000000000000000000815260040161177a90613163565b60405180910390fd5b818160000160008282546117979190612764565b92505081905550428160040181905550603c426117b49190612764565b81600201819055506117c533611c1f565b816006018190555060008160000154905060006117e1826120ba565b905060008111156119295760005b81811015611927576000600260009054906101000a900473ffffffffffffffffffffffffffffffffffffffff1673ffffffffffffffffffffffffffffffffffffffff166354ba0f27336040518263ffffffff1660e01b815260040161185491906124cf565b6020604051808303816000875af1158015611873573d6000803e3d6000fd5b505050506040513d601f19601f820116820180604052508101906118979190612ac3565b9050600460003373ffffffffffffffffffffffffffffffffffffffff1673ffffffffffffffffffffffffffffffffffffffff16815260200190815260200160002081908060018154018082558091505060019003906000526020600020016000909190919091505584600501600081548092919061191490613183565b91905055505080806001019150506117ef565b505b3373ffffffffffffffffffffffffffffffffffffffff167fe10bcb358472cb6410e66070f35857744e4c5308bf597e2e00cf102bd62c9f52600086600067ffffffffffffffff81111561197f5761197e612ce8565b5b6040519080825280602002602001820160405280156119ad5781602001602082028036833780820191505090505b506000806040516119c2959493929190613051565b60405180910390a250505050565b6119d8611f6f565b600073ffffffffffffffffffffffffffffffffffffffff168173ffffffffffffffffffffffffffffffffffffffff1603611a4a5760006040517f1e4fbdf7000000000000000000000000000000000000000000000000000000008152600401611a4191906124cf565b60405180910390fd5b611a5381611ff6565b50565b6000600360008373ffffffffffffffffffffffffffffffffffffffff1673ffffffffffffffffffffffffffffffffffffffff1681526020019081526020016000209050600081600001541115611ad9576000611ab183611d06565b905080826008016000828254611ac79190612764565b92505081905550428260040181905550505b5050565b6000600460008473ffffffffffffffffffffffffffffffffffffffff1673ffffffffffffffffffffffffffffffffffffffff168152602001908152602001600020905060008180549050905060005b81811015611bdf5783838281548110611b4857611b47612621565b5b906000526020600020015403611bd25782600183611b669190612798565b81548110611b7757611b76612621565b5b9060005260206000200154838281548110611b9557611b94612621565b5b906000526020600020018190555082805480611bb457611bb3612e49565b5b60019003818190600052602060002001600090559055505050611c1b565b8080600101915050611b2c565b506040517f08c379a0000000000000000000000000000000000000000000000000000000008152600401611c1290613217565b60405180910390fd5b5050565b600080600360008473ffffffffffffffffffffffffffffffffffffffff1673ffffffffffffffffffffffffffffffffffffffff16815260200190815260200160002060405180610120016040529081600082015481526020016001820154815260200160028201548152602001600382015481526020016004820154815260200160058201548152602001600682015481526020016007820154815260200160088201548152505090506000610320905060008260e001511115611cfc578160e0015160c8611cee9190613237565b81611cf99190612764565b90505b8092505050919050565b600080600360008473ffffffffffffffffffffffffffffffffffffffff1673ffffffffffffffffffffffffffffffffffffffff168152602001908152602001600020604051806101200160405290816000820154815260200160018201548152602001600282015481526020016003820154815260200160048201548152602001600582015481526020016006820154815260200160078201548152602001600882015481525050905060008082600001511115611e16576000826080015142611dd09190612798565b905060008360c001519050640757b12c0082828660000151611df29190613237565b611dfc9190613237565b611e0691906132a8565b83611e119190612764565b925050505b8092505050919050565b600080600560008573ffffffffffffffffffffffffffffffffffffffff1673ffffffffffffffffffffffffffffffffffffffff168152602001908152602001600020805480602002602001604051908101604052809291908181526020018280548015611eac57602002820191906000526020600020905b815481526020019060010190808311611e98575b5050505050905060005b8151811015611ef85783828281518110611ed357611ed2612621565b5b602002602001015103611eeb57600192505050611eff565b8080600101915050611eb6565b5060009150505b92915050565b600460008373ffffffffffffffffffffffffffffffffffffffff1673ffffffffffffffffffffffffffffffffffffffff1681526020019081526020016000208190806001815401808255809150506001900390600052602060002001600090919091909150555050565b611f7761213b565b73ffffffffffffffffffffffffffffffffffffffff16611f95611157565b73ffffffffffffffffffffffffffffffffffffffff1614611ff457611fb861213b565b6040517f118cdaa7000000000000000000000000000000000000000000000000000000008152600401611feb91906124cf565b60405180910390fd5b565b60008060009054906101000a900473ffffffffffffffffffffffffffffffffffffffff169050816000806101000a81548173ffffffffffffffffffffffffffffffffffffffff021916908373ffffffffffffffffffffffffffffffffffffffff1602179055508173ffffffffffffffffffffffffffffffffffffffff168173ffffffffffffffffffffffffffffffffffffffff167f8be0079c531659141344cd1fd0a4f28419497f9722a3daafe3b4186f6b6457e060405160405180910390a35050565b600080600460003373ffffffffffffffffffffffffffffffffffffffff1673ffffffffffffffffffffffffffffffffffffffff1681526020019081526020016000208054905069d3c21bcecceda10000008461211691906132a8565b6121209190612798565b905060008111612131576000612133565b805b915050919050565b600033905090565b600080fd5b600080fd5b600080fd5b600080fd5b600080fd5b60008083601f8401126121725761217161214d565b5b8235905067ffffffffffffffff81111561218f5761218e612152565b5b6020830191508360208202830111156121ab576121aa612157565b5b9250929050565b600080602083850312156121c9576121c8612143565b5b600083013567ffffffffffffffff8111156121e7576121e6612148565b5b6121f38582860161215c565b92509250509250929050565b600073ffffffffffffffffffffffffffffffffffffffff82169050919050565b6000819050919050565b600061224461223f61223a846121ff565b61221f565b6121ff565b9050919050565b600061225682612229565b9050919050565b60006122688261224b565b9050919050565b6122788161225d565b82525050565b6000602082019050612293600083018461226f565b92915050565b6000819050919050565b6122ac81612299565b82525050565b60006020820190506122c760008301846122a3565b92915050565b60006122d8826121ff565b9050919050565b6122e8816122cd565b81146122f357600080fd5b50565b600081359050612305816122df565b92915050565b61231481612299565b811461231f57600080fd5b50565b6000813590506123318161230b565b92915050565b6000806040838503121561234e5761234d612143565b5b600061235c858286016122f6565b925050602061236d85828601612322565b9150509250929050565b600081519050919050565b600082825260208201905092915050565b6000819050602082019050919050565b6123ac81612299565b82525050565b60006123be83836123a3565b60208301905092915050565b6000602082019050919050565b60006123e282612377565b6123ec8185612382565b93506123f783612393565b8060005b8381101561242857815161240f88826123b2565b975061241a836123ca565b9250506001810190506123fb565b5085935050505092915050565b6000602082019050818103600083015261244f81846123d7565b905092915050565b60006020828403121561246d5761246c612143565b5b600061247b84828501612322565b91505092915050565b600061248f8261224b565b9050919050565b61249f81612484565b82525050565b60006020820190506124ba6000830184612496565b92915050565b6124c9816122cd565b82525050565b60006020820190506124e460008301846124c0565b92915050565b600060208284031215612500576124ff612143565b5b600061250e848285016122f6565b91505092915050565b60006101208201905061252d600083018c6122a3565b61253a602083018b6122a3565b612547604083018a6122a3565b61255460608301896122a3565b61256160808301886122a3565b61256e60a08301876122a3565b61257b60c08301866122a3565b61258860e08301856122a3565b6125966101008301846122a3565b9a9950505050505050505050565b600082825260208201905092915050565b7f4e6f204e4654732070726f766964656420666f72206465706f73697400000000600082015250565b60006125eb601c836125a4565b91506125f6826125b5565b602082019050919050565b6000602082019050818103600083015261261a816125de565b9050919050565b7f4e487b7100000000000000000000000000000000000000000000000000000000600052603260045260246000fd5b60008151905061265f816122df565b92915050565b60006020828403121561267b5761267a612143565b5b600061268984828501612650565b91505092915050565b7f596f7520646f206e6f74206f776e2074686973204e4654000000000000000000600082015250565b60006126c86017836125a4565b91506126d382612692565b602082019050919050565b600060208201905081810360008301526126f7816126bb565b9050919050565b600060608201905061271360008301866124c0565b61272060208301856124c0565b61272d60408301846122a3565b949350505050565b7f4e487b7100000000000000000000000000000000000000000000000000000000600052601160045260246000fd5b600061276f82612299565b915061277a83612299565b925082820190508082111561279257612791612735565b5b92915050565b60006127a382612299565b91506127ae83612299565b92508282039050818111156127c6576127c5612735565b5b92915050565b7f4e487b7100000000000000000000000000000000000000000000000000000000600052602160045260246000fd5b6005811061280c5761280b6127cc565b5b50565b600081905061281d826127fb565b919050565b600061282d8261280f565b9050919050565b61283d81612822565b82525050565b6000819050919050565b600061286861286361285e84612843565b61221f565b612299565b9050919050565b6128788161284d565b82525050565b600080fd5b82818337505050565b60006128988385612382565b93507f07ffffffffffffffffffffffffffffffffffffffffffffffffffffffffffffff8311156128cb576128ca61287e565b5b6020830292506128dc838584612883565b82840190509392505050565b600060a0820190506128fd6000830189612834565b61290a602083018861286f565b818103604083015261291d81868861288c565b905061292c606083018561286f565b612939608083018461286f565b979650505050505050565b7f4e6f20746f6b656e7320746f2077697468647261770000000000000000000000600082015250565b600061297a6015836125a4565b915061298582612944565b602082019050919050565b600060208201905081810360008301526129a98161296d565b9050919050565b7f546f6b656e7320617265207374696c6c206c6f636b6564000000000000000000600082015250565b60006129e66017836125a4565b91506129f1826129b0565b602082019050919050565b60006020820190508181036000830152612a15816129d9565b9050919050565b7f496e73756666696369656e742062616c616e636520666f72207769746864726160008201527f77616c0000000000000000000000000000000000000000000000000000000000602082015250565b6000612a786023836125a4565b9150612a8382612a1c565b604082019050919050565b60006020820190508181036000830152612aa781612a6b565b9050919050565b600081519050612abd8161230b565b92915050565b600060208284031215612ad957612ad8612143565b5b6000612ae784828501612aae565b91505092915050565b7f496e73756666696369656e7420746f6b656e2062616c616e636520696e20636f60008201527f6e74726163740000000000000000000000000000000000000000000000000000602082015250565b6000612b4c6026836125a4565b9150612b5782612af0565b604082019050919050565b60006020820190508181036000830152612b7b81612b3f565b9050919050565b6000604082019050612b9760008301856124c0565b612ba460208301846122a3565b9392505050565b60008115159050919050565b612bc081612bab565b8114612bcb57600080fd5b50565b600081519050612bdd81612bb7565b92915050565b600060208284031215612bf957612bf8612143565b5b6000612c0784828501612bce565b91505092915050565b7f4661696c656420746f207472616e7366657220746f6b656e7300000000000000600082015250565b6000612c466019836125a4565b9150612c5182612c10565b602082019050919050565b60006020820190508181036000830152612c7581612c39565b9050919050565b7f4661696c656420746f207472616e736665722072657761726473000000000000600082015250565b6000612cb2601a836125a4565b9150612cbd82612c7c565b602082019050919050565b60006020820190508181036000830152612ce181612ca5565b9050919050565b7f4e487b7100000000000000000000000000000000000000000000000000000000600052604160045260246000fd5b600060a082019050612d2c6000830188612834565b612d3960208301876122a3565b8181036040830152612d4b81866123d7565b9050612d5a60608301856122a3565b612d6760808301846122a3565b9695505050505050565b7f4e6f204e4654732070726f766964656420666f72207769746864726177616c00600082015250565b6000612da7601f836125a4565b9150612db282612d71565b602082019050919050565b60006020820190508181036000830152612dd681612d9a565b9050919050565b7f4e4654206973206e6f74207374616b6564206279207573657200000000000000600082015250565b6000612e136019836125a4565b9150612e1e82612ddd565b602082019050919050565b60006020820190508181036000830152612e4281612e06565b9050919050565b7f4e487b7100000000000000000000000000000000000000000000000000000000600052603160045260246000fd5b6000612e8382612299565b915060008203612e9657612e95612735565b5b600182039050919050565b7f4c6f636b20706572696f64206e6f742079657420656e64656400000000000000600082015250565b6000612ed76019836125a4565b9150612ee282612ea1565b602082019050919050565b60006020820190508181036000830152612f0681612eca565b9050919050565b7f4e6f207265776172647320617661696c61626c6520746f20636c61696d000000600082015250565b6000612f43601d836125a4565b9150612f4e82612f0d565b602082019050919050565b60006020820190508181036000830152612f7281612f36565b9050919050565b7f496e73756666696369656e742062616c616e636520696e20636f6e7472616374600082015250565b6000612faf6020836125a4565b9150612fba82612f79565b602082019050919050565b60006020820190508181036000830152612fde81612fa2565b9050919050565b7f4661696c656420746f207472616e736665722072657761726400000000000000600082015250565b600061301b6019836125a4565b915061302682612fe5565b602082019050919050565b6000602082019050818103600083015261304a8161300e565b9050919050565b600060a0820190506130666000830188612834565b61307360208301876122a3565b818103604083015261308581866123d7565b9050613094606083018561286f565b6130a1608083018461286f565b9695505050505050565b7f416d6f756e74206d7573742062652067726561746572207468616e2030000000600082015250565b60006130e1601d836125a4565b91506130ec826130ab565b602082019050919050565b60006020820190508181036000830152613110816130d4565b9050919050565b7f5472616e73666572206661696c65640000000000000000000000000000000000600082015250565b600061314d600f836125a4565b915061315882613117565b602082019050919050565b6000602082019050818103600083015261317c81613140565b9050919050565b600061318e82612299565b91507fffffffffffffffffffffffffffffffffffffffffffffffffffffffffffffffff82036131c0576131bf612735565b5b600182019050919050565b7f4e4654206e6f7420666f756e6420696e206c6973740000000000000000000000600082015250565b60006132016015836125a4565b915061320c826131cb565b602082019050919050565b60006020820190508181036000830152613230816131f4565b9050919050565b600061324282612299565b915061324d83612299565b925082820261325b81612299565b9150828204841483151761327257613271612735565b5b5092915050565b7f4e487b7100000000000000000000000000000000000000000000000000000000600052601260045260246000fd5b60006132b382612299565b91506132be83612299565b9250826132ce576132cd613279565b5b82820490509291505056fea26469706673582212208251f925a1963b03a93c176b7b3e499c8c3b5471714532ebcb44d900357eac4464736f6c63430008180033",
  "linkReferences": {},
  "deployedLinkReferences": {}
}