{
  "_format": "hh-sol-artifact-1",
  "contractName": "NFTB",
  "sourceName": "contracts/NFTB.sol",
  "abi": [
    {
      "inputs": [],
      "stateMutability": "nonpayable",
      "type": "constructor"
    },
    {
      "inputs": [
        {
          "internalType": "address",
          "name": "sender",
          "type": "address"
        },
        {
          "internalType": "uint256",
          "name": "tokenId",
          "type": "uint256"
        },
        {
          "internalType": "address",
          "name": "owner",
          "type": "address"
        }
      ],
      "name": "ERC721IncorrectOwner",
      "type": "error"
    },
    {
      "inputs": [
        {
          "internalType": "address",
          "name": "operator",
          "type": "address"
        },
        {
          "internalType": "uint256",
          "name": "tokenId",
          "type": "uint256"
        }
      ],
      "name": "ERC721InsufficientApproval",
      "type": "error"
    },
    {
      "inputs": [
        {
          "internalType": "address",
          "name": "approver",
          "type": "address"
        }
      ],
      "name": "ERC721InvalidApprover",
      "type": "error"
    },
    {
      "inputs": [
        {
          "internalType": "address",
          "name": "operator",
          "type": "address"
        }
      ],
      "name": "ERC721InvalidOperator",
      "type": "error"
    },
    {
      "inputs": [
        {
          "internalType": "address",
          "name": "owner",
          "type": "address"
        }
      ],
      "name": "ERC721InvalidOwner",
      "type": "error"
    },
    {
      "inputs": [
        {
          "internalType": "address",
          "name": "receiver",
          "type": "address"
        }
      ],
      "name": "ERC721InvalidReceiver",
      "type": "error"
    },
    {
      "inputs": [
        {
          "internalType": "address",
          "name": "sender",
          "type": "address"
        }
      ],
      "name": "ERC721InvalidSender",
      "type": "error"
    },
    {
      "inputs": [
        {
          "internalType": "uint256",
          "name": "tokenId",
          "type": "uint256"
        }
      ],
      "name": "ERC721NonexistentToken",
      "type": "error"
    },
    {
      "inputs": [
        {
          "internalType": "address",
          "name": "owner",
          "type": "address"
        }
      ],
      "name": "OwnableInvalidOwner",
      "type": "error"
    },
    {
      "inputs": [
        {
          "internalType": "address",
          "name": "account",
          "type": "address"
        }
      ],
      "name": "OwnableUnauthorizedAccount",
      "type": "error"
    },
    {
      "anonymous": false,
      "inputs": [
        {
          "indexed": true,
          "internalType": "address",
          "name": "owner",
          "type": "address"
        },
        {
          "indexed": true,
          "internalType": "address",
          "name": "approved",
          "type": "address"
        },
        {
          "indexed": true,
          "internalType": "uint256",
          "name": "tokenId",
          "type": "uint256"
        }
      ],
      "name": "Approval",
      "type": "event"
    },
    {
      "anonymous": false,
      "inputs": [
        {
          "indexed": true,
          "internalType": "address",
          "name": "owner",
          "type": "address"
        },
        {
          "indexed": true,
          "internalType": "address",
          "name": "operator",
          "type": "address"
        },
        {
          "indexed": false,
          "internalType": "bool",
          "name": "approved",
          "type": "bool"
        }
      ],
      "name": "ApprovalForAll",
      "type": "event"
    },
    {
      "anonymous": false,
      "inputs": [
        {
          "indexed": true,
          "internalType": "address",
          "name": "previousOwner",
          "type": "address"
        },
        {
          "indexed": true,
          "internalType": "address",
          "name": "newOwner",
          "type": "address"
        }
      ],
      "name": "OwnershipTransferred",
      "type": "event"
    },
    {
      "anonymous": false,
      "inputs": [
        {
          "indexed": true,
          "internalType": "address",
          "name": "from",
          "type": "address"
        },
        {
          "indexed": true,
          "internalType": "address",
          "name": "to",
          "type": "address"
        },
        {
          "indexed": true,
          "internalType": "uint256",
          "name": "tokenId",
          "type": "uint256"
        }
      ],
      "name": "Transfer",
      "type": "event"
    },
    {
      "inputs": [
        {
          "internalType": "address",
          "name": "to",
          "type": "address"
        },
        {
          "internalType": "uint256",
          "name": "tokenId",
          "type": "uint256"
        }
      ],
      "name": "approve",
      "outputs": [],
      "stateMutability": "nonpayable",
      "type": "function"
    },
    {
      "inputs": [
        {
          "internalType": "address",
          "name": "owner",
          "type": "address"
        }
      ],
      "name": "balanceOf",
      "outputs": [
        {
          "internalType": "uint256",
          "name": "",
          "type": "uint256"
        }
      ],
      "stateMutability": "view",
      "type": "function"
    },
    {
      "inputs": [
        {
          "internalType": "uint256",
          "name": "tokenId",
          "type": "uint256"
        }
      ],
      "name": "getApproved",
      "outputs": [
        {
          "internalType": "address",
          "name": "",
          "type": "address"
        }
      ],
      "stateMutability": "view",
      "type": "function"
    },
    {
      "inputs": [
        {
          "internalType": "address",
          "name": "owner",
          "type": "address"
        },
        {
          "internalType": "address",
          "name": "operator",
          "type": "address"
        }
      ],
      "name": "isApprovedForAll",
      "outputs": [
        {
          "internalType": "bool",
          "name": "",
          "type": "bool"
        }
      ],
      "stateMutability": "view",
      "type": "function"
    },
    {
      "inputs": [
        {
          "internalType": "address",
          "name": "to",
          "type": "address"
        }
      ],
      "name": "mintNFT",
      "outputs": [
        {
          "internalType": "uint256",
          "name": "tokenId",
          "type": "uint256"
        }
      ],
      "stateMutability": "nonpayable",
      "type": "function"
    },
    {
      "inputs": [],
      "name": "name",
      "outputs": [
        {
          "internalType": "string",
          "name": "",
          "type": "string"
        }
      ],
      "stateMutability": "view",
      "type": "function"
    },
    {
      "inputs": [],
      "name": "owner",
      "outputs": [
        {
          "internalType": "address",
          "name": "",
          "type": "address"
        }
      ],
      "stateMutability": "view",
      "type": "function"
    },
    {
      "inputs": [
        {
          "internalType": "uint256",
          "name": "tokenId",
          "type": "uint256"
        }
      ],
      "name": "ownerOf",
      "outputs": [
        {
          "internalType": "address",
          "name": "",
          "type": "address"
        }
      ],
      "stateMutability": "view",
      "type": "function"
    },
    {
      "inputs": [],
      "name": "renounceOwnership",
      "outputs": [],
      "stateMutability": "nonpayable",
      "type": "function"
    },
    {
      "inputs": [
        {
          "internalType": "address",
          "name": "from",
          "type": "address"
        },
        {
          "internalType": "address",
          "name": "to",
          "type": "address"
        },
        {
          "internalType": "uint256",
          "name": "tokenId",
          "type": "uint256"
        }
      ],
      "name": "safeTransferFrom",
      "outputs": [],
      "stateMutability": "nonpayable",
      "type": "function"
    },
    {
      "inputs": [
        {
          "internalType": "address",
          "name": "from",
          "type": "address"
        },
        {
          "internalType": "address",
          "name": "to",
          "type": "address"
        },
        {
          "internalType": "uint256",
          "name": "tokenId",
          "type": "uint256"
        },
        {
          "internalType": "bytes",
          "name": "data",
          "type": "bytes"
        }
      ],
      "name": "safeTransferFrom",
      "outputs": [],
      "stateMutability": "nonpayable",
      "type": "function"
    },
    {
      "inputs": [
        {
          "internalType": "address",
          "name": "operator",
          "type": "address"
        },
        {
          "internalType": "bool",
          "name": "approved",
          "type": "bool"
        }
      ],
      "name": "setApprovalForAll",
      "outputs": [],
      "stateMutability": "nonpayable",
      "type": "function"
    },
    {
      "inputs": [
        {
          "internalType": "address",
          "name": "_stakingContract",
          "type": "address"
        }
      ],
      "name": "setStakingContract",
      "outputs": [],
      "stateMutability": "nonpayable",
      "type": "function"
    },
    {
      "inputs": [],
      "name": "stakingContract",
      "outputs": [
        {
          "internalType": "address",
          "name": "",
          "type": "address"
        }
      ],
      "stateMutability": "view",
      "type": "function"
    },
    {
      "inputs": [
        {
          "internalType": "bytes4",
          "name": "interfaceId",
          "type": "bytes4"
        }
      ],
      "name": "supportsInterface",
      "outputs": [
        {
          "internalType": "bool",
          "name": "",
          "type": "bool"
        }
      ],
      "stateMutability": "view",
      "type": "function"
    },
    {
      "inputs": [],
      "name": "symbol",
      "outputs": [
        {
          "internalType": "string",
          "name": "",
          "type": "string"
        }
      ],
      "stateMutability": "view",
      "type": "function"
    },
    {
      "inputs": [
        {
          "internalType": "uint256",
          "name": "tokenId",
          "type": "uint256"
        }
      ],
      "name": "tokenURI",
      "outputs": [
        {
          "internalType": "string",
          "name": "",
          "type": "string"
        }
      ],
      "stateMutability": "view",
      "type": "function"
    },
    {
      "inputs": [
        {
          "internalType": "address",
          "name": "from",
          "type": "address"
        },
        {
          "internalType": "address",
          "name": "to",
          "type": "address"
        },
        {
          "internalType": "uint256",
          "name": "tokenId",
          "type": "uint256"
        }
      ],
      "name": "transferFrom",
      "outputs": [],
      "stateMutability": "nonpayable",
      "type": "function"
    },
    {
      "inputs": [
        {
          "internalType": "address",
          "name": "newOwner",
          "type": "address"
        }
      ],
      "name": "transferOwnership",
      "outputs": [],
      "stateMutability": "nonpayable",
      "type": "function"
    }
  ],
  "bytecode": "0x60806040523480156200001157600080fd5b50336040518060400160405280600581526020017f4e465420420000000000000000000000000000000000000000000000000000008152506040518060400160405280600481526020017f4e465442000000000000000000000000000000000000000000000000000000008152508160009081620000909190620004b3565b508060019081620000a29190620004b3565b505050600073ffffffffffffffffffffffffffffffffffffffff168173ffffffffffffffffffffffffffffffffffffffff16036200011a5760006040517f1e4fbdf7000000000000000000000000000000000000000000000000000000008152600401620001119190620005df565b60405180910390fd5b6200012b816200017360201b60201c565b5033600860006101000a81548173ffffffffffffffffffffffffffffffffffffffff021916908373ffffffffffffffffffffffffffffffffffffffff160217905550620005fc565b6000600660009054906101000a900473ffffffffffffffffffffffffffffffffffffffff16905081600660006101000a81548173ffffffffffffffffffffffffffffffffffffffff021916908373ffffffffffffffffffffffffffffffffffffffff1602179055508173ffffffffffffffffffffffffffffffffffffffff168173ffffffffffffffffffffffffffffffffffffffff167f8be0079c531659141344cd1fd0a4f28419497f9722a3daafe3b4186f6b6457e060405160405180910390a35050565b600081519050919050565b7f4e487b7100000000000000000000000000000000000000000000000000000000600052604160045260246000fd5b7f4e487b7100000000000000000000000000000000000000000000000000000000600052602260045260246000fd5b60006002820490506001821680620002bb57607f821691505b602082108103620002d157620002d062000273565b5b50919050565b60008190508160005260206000209050919050565b60006020601f8301049050919050565b600082821b905092915050565b6000600883026200033b7fffffffffffffffffffffffffffffffffffffffffffffffffffffffffffffffff82620002fc565b620003478683620002fc565b95508019841693508086168417925050509392505050565b6000819050919050565b6000819050919050565b6000620003946200038e62000388846200035f565b62000369565b6200035f565b9050919050565b6000819050919050565b620003b08362000373565b620003c8620003bf826200039b565b84845462000309565b825550505050565b600090565b620003df620003d0565b620003ec818484620003a5565b505050565b5b81811015620004145762000408600082620003d5565b600181019050620003f2565b5050565b601f82111562000463576200042d81620002d7565b6200043884620002ec565b8101602085101562000448578190505b620004606200045785620002ec565b830182620003f1565b50505b505050565b600082821c905092915050565b6000620004886000198460080262000468565b1980831691505092915050565b6000620004a3838362000475565b9150826002028217905092915050565b620004be8262000239565b67ffffffffffffffff811115620004da57620004d962000244565b5b620004e68254620002a2565b620004f382828562000418565b600060209050601f8311600181146200052b576000841562000516578287015190505b62000522858262000495565b86555062000592565b601f1984166200053b86620002d7565b60005b8281101562000565578489015182556001820191506020850194506020810190506200053e565b8683101562000585578489015162000581601f89168262000475565b8355505b6001600288020188555050505b505050505050565b600073ffffffffffffffffffffffffffffffffffffffff82169050919050565b6000620005c7826200059a565b9050919050565b620005d981620005ba565b82525050565b6000602082019050620005f66000830184620005ce565b92915050565b6122d3806200060c6000396000f3fe608060405234801561001057600080fd5b50600436106101215760003560e01c8063715018a6116100ad578063b88d4fde11610071578063b88d4fde14610306578063c87b56dd14610322578063e985e9c514610352578063ee99205c14610382578063f2fde38b146103a057610121565b8063715018a6146102885780638da5cb5b1461029257806395d89b41146102b05780639dd373b9146102ce578063a22cb465146102ea57610121565b806323b872dd116100f457806323b872dd146101c057806342842e0e146101dc57806354ba0f27146101f85780636352211e1461022857806370a082311461025857610121565b806301ffc9a71461012657806306fdde0314610156578063081812fc14610174578063095ea7b3146101a4575b600080fd5b610140600480360381019061013b9190611a3a565b6103bc565b60405161014d9190611a82565b60405180910390f35b61015e61049e565b60405161016b9190611b2d565b60405180910390f35b61018e60048036038101906101899190611b85565b610530565b60405161019b9190611bf3565b60405180910390f35b6101be60048036038101906101b99190611c3a565b61054c565b005b6101da60048036038101906101d59190611c7a565b610562565b005b6101f660048036038101906101f19190611c7a565b610664565b005b610212600480360381019061020d9190611ccd565b610684565b60405161021f9190611d09565b60405180910390f35b610242600480360381019061023d9190611b85565b610742565b60405161024f9190611bf3565b60405180910390f35b610272600480360381019061026d9190611ccd565b610754565b60405161027f9190611d09565b60405180910390f35b61029061080e565b005b61029a610822565b6040516102a79190611bf3565b60405180910390f35b6102b861084c565b6040516102c59190611b2d565b60405180910390f35b6102e860048036038101906102e39190611ccd565b6108de565b005b61030460048036038101906102ff9190611d50565b61092a565b005b610320600480360381019061031b9190611ec5565b610940565b005b61033c60048036038101906103379190611b85565b61095d565b6040516103499190611b2d565b60405180910390f35b61036c60048036038101906103679190611f48565b6109c6565b6040516103799190611a82565b60405180910390f35b61038a610a5a565b6040516103979190611bf3565b60405180910390f35b6103ba60048036038101906103b59190611ccd565b610a80565b005b60007f80ac58cd000000000000000000000000000000000000000000000000000000007bffffffffffffffffffffffffffffffffffffffffffffffffffffffff1916827bffffffffffffffffffffffffffffffffffffffffffffffffffffffff1916148061048757507f5b5e139f000000000000000000000000000000000000000000000000000000007bffffffffffffffffffffffffffffffffffffffffffffffffffffffff1916827bffffffffffffffffffffffffffffffffffffffffffffffffffffffff1916145b80610497575061049682610b06565b5b9050919050565b6060600080546104ad90611fb7565b80601f01602080910402602001604051908101604052809291908181526020018280546104d990611fb7565b80156105265780601f106104fb57610100808354040283529160200191610526565b820191906000526020600020905b81548152906001019060200180831161050957829003601f168201915b5050505050905090565b600061053b82610b70565b5061054582610bf8565b9050919050565b61055e8282610559610c35565b610c3d565b5050565b600073ffffffffffffffffffffffffffffffffffffffff168273ffffffffffffffffffffffffffffffffffffffff16036105d45760006040517f64a0ae920000000000000000000000000000000000000000000000000000000081526004016105cb9190611bf3565b60405180910390fd5b60006105e883836105e3610c35565b610c4f565b90508373ffffffffffffffffffffffffffffffffffffffff168173ffffffffffffffffffffffffffffffffffffffff161461065e578382826040517f64283d7b00000000000000000000000000000000000000000000000000000000815260040161065593929190611fe8565b60405180910390fd5b50505050565b61067f83838360405180602001604052806000815250610940565b505050565b6000600860009054906101000a900473ffffffffffffffffffffffffffffffffffffffff1673ffffffffffffffffffffffffffffffffffffffff163373ffffffffffffffffffffffffffffffffffffffff1614610716576040517f08c379a000000000000000000000000000000000000000000000000000000000815260040161070d9061206b565b60405180910390fd5b60075490506107258282610e69565b60076000815480929190610738906120ba565b9190505550919050565b600061074d82610b70565b9050919050565b60008073ffffffffffffffffffffffffffffffffffffffff168273ffffffffffffffffffffffffffffffffffffffff16036107c75760006040517f89c62b640000000000000000000000000000000000000000000000000000000081526004016107be9190611bf3565b60405180910390fd5b600360008373ffffffffffffffffffffffffffffffffffffffff1673ffffffffffffffffffffffffffffffffffffffff168152602001908152602001600020549050919050565b610816610e87565b6108206000610f0e565b565b6000600660009054906101000a900473ffffffffffffffffffffffffffffffffffffffff16905090565b60606001805461085b90611fb7565b80601f016020809104026020016040519081016040528092919081815260200182805461088790611fb7565b80156108d45780601f106108a9576101008083540402835291602001916108d4565b820191906000526020600020905b8154815290600101906020018083116108b757829003601f168201915b5050505050905090565b6108e6610e87565b80600860006101000a81548173ffffffffffffffffffffffffffffffffffffffff021916908373ffffffffffffffffffffffffffffffffffffffff16021790555050565b61093c610935610c35565b8383610fd4565b5050565b61094b848484610562565b61095784848484611143565b50505050565b606061096882610b70565b5060006109736112fa565b9050600081511161099357604051806020016040528060008152506109be565b8061099d84611311565b6040516020016109ae92919061213e565b6040516020818303038152906040525b915050919050565b6000600560008473ffffffffffffffffffffffffffffffffffffffff1673ffffffffffffffffffffffffffffffffffffffff16815260200190815260200160002060008373ffffffffffffffffffffffffffffffffffffffff1673ffffffffffffffffffffffffffffffffffffffff16815260200190815260200160002060009054906101000a900460ff16905092915050565b600860009054906101000a900473ffffffffffffffffffffffffffffffffffffffff1681565b610a88610e87565b600073ffffffffffffffffffffffffffffffffffffffff168173ffffffffffffffffffffffffffffffffffffffff1603610afa5760006040517f1e4fbdf7000000000000000000000000000000000000000000000000000000008152600401610af19190611bf3565b60405180910390fd5b610b0381610f0e565b50565b60007f01ffc9a7000000000000000000000000000000000000000000000000000000007bffffffffffffffffffffffffffffffffffffffffffffffffffffffff1916827bffffffffffffffffffffffffffffffffffffffffffffffffffffffff1916149050919050565b600080610b7c836113df565b9050600073ffffffffffffffffffffffffffffffffffffffff168173ffffffffffffffffffffffffffffffffffffffff1603610bef57826040517f7e273289000000000000000000000000000000000000000000000000000000008152600401610be69190611d09565b60405180910390fd5b80915050919050565b60006004600083815260200190815260200160002060009054906101000a900473ffffffffffffffffffffffffffffffffffffffff169050919050565b600033905090565b610c4a838383600161141c565b505050565b600080610c5b846113df565b9050600073ffffffffffffffffffffffffffffffffffffffff168373ffffffffffffffffffffffffffffffffffffffff1614610c9d57610c9c8184866115e1565b5b600073ffffffffffffffffffffffffffffffffffffffff168173ffffffffffffffffffffffffffffffffffffffff1614610d2e57610cdf60008560008061141c565b6001600360008373ffffffffffffffffffffffffffffffffffffffff1673ffffffffffffffffffffffffffffffffffffffff168152602001908152602001600020600082825403925050819055505b600073ffffffffffffffffffffffffffffffffffffffff168573ffffffffffffffffffffffffffffffffffffffff1614610db1576001600360008773ffffffffffffffffffffffffffffffffffffffff1673ffffffffffffffffffffffffffffffffffffffff168152602001908152602001600020600082825401925050819055505b846002600086815260200190815260200160002060006101000a81548173ffffffffffffffffffffffffffffffffffffffff021916908373ffffffffffffffffffffffffffffffffffffffff160217905550838573ffffffffffffffffffffffffffffffffffffffff168273ffffffffffffffffffffffffffffffffffffffff167fddf252ad1be2c89b69c2b068fc378daa952ba7f163c4a11628f55a4df523b3ef60405160405180910390a4809150509392505050565b610e838282604051806020016040528060008152506116a5565b5050565b610e8f610c35565b73ffffffffffffffffffffffffffffffffffffffff16610ead610822565b73ffffffffffffffffffffffffffffffffffffffff1614610f0c57610ed0610c35565b6040517f118cdaa7000000000000000000000000000000000000000000000000000000008152600401610f039190611bf3565b60405180910390fd5b565b6000600660009054906101000a900473ffffffffffffffffffffffffffffffffffffffff16905081600660006101000a81548173ffffffffffffffffffffffffffffffffffffffff021916908373ffffffffffffffffffffffffffffffffffffffff1602179055508173ffffffffffffffffffffffffffffffffffffffff168173ffffffffffffffffffffffffffffffffffffffff167f8be0079c531659141344cd1fd0a4f28419497f9722a3daafe3b4186f6b6457e060405160405180910390a35050565b600073ffffffffffffffffffffffffffffffffffffffff168273ffffffffffffffffffffffffffffffffffffffff160361104557816040517f5b08ba1800000000000000000000000000000000000000000000000000000000815260040161103c9190611bf3565b60405180910390fd5b80600560008573ffffffffffffffffffffffffffffffffffffffff1673ffffffffffffffffffffffffffffffffffffffff16815260200190815260200160002060008473ffffffffffffffffffffffffffffffffffffffff1673ffffffffffffffffffffffffffffffffffffffff16815260200190815260200160002060006101000a81548160ff0219169083151502179055508173ffffffffffffffffffffffffffffffffffffffff168373ffffffffffffffffffffffffffffffffffffffff167f17307eab39ab6107e8899845ad3d59bd9653f200f220920489ca2b5937696c31836040516111369190611a82565b60405180910390a3505050565b60008373ffffffffffffffffffffffffffffffffffffffff163b11156112f4578273ffffffffffffffffffffffffffffffffffffffff1663150b7a02611187610c35565b8685856040518563ffffffff1660e01b81526004016111a994939291906121b7565b6020604051808303816000875af19250505080156111e557506040513d601f19601f820116820180604052508101906111e29190612218565b60015b611269573d8060008114611215576040519150601f19603f3d011682016040523d82523d6000602084013e61121a565b606091505b50600081510361126157836040517f64a0ae920000000000000000000000000000000000000000000000000000000081526004016112589190611bf3565b60405180910390fd5b805181602001fd5b63150b7a0260e01b7bffffffffffffffffffffffffffffffffffffffffffffffffffffffff1916817bffffffffffffffffffffffffffffffffffffffffffffffffffffffff1916146112f257836040517f64a0ae920000000000000000000000000000000000000000000000000000000081526004016112e99190611bf3565b60405180910390fd5b505b50505050565b606060405180602001604052806000815250905090565b606060006001611320846116c1565b01905060008167ffffffffffffffff81111561133f5761133e611d9a565b5b6040519080825280601f01601f1916602001820160405280156113715781602001600182028036833780820191505090505b509050600082602001820190505b6001156113d4578080600190039150507f3031323334353637383961626364656600000000000000000000000000000000600a86061a8153600a85816113c8576113c7612245565b5b0494506000850361137f575b819350505050919050565b60006002600083815260200190815260200160002060009054906101000a900473ffffffffffffffffffffffffffffffffffffffff169050919050565b80806114555750600073ffffffffffffffffffffffffffffffffffffffff168273ffffffffffffffffffffffffffffffffffffffff1614155b1561158957600061146584610b70565b9050600073ffffffffffffffffffffffffffffffffffffffff168373ffffffffffffffffffffffffffffffffffffffff16141580156114d057508273ffffffffffffffffffffffffffffffffffffffff168173ffffffffffffffffffffffffffffffffffffffff1614155b80156114e357506114e181846109c6565b155b1561152557826040517fa9fbf51f00000000000000000000000000000000000000000000000000000000815260040161151c9190611bf3565b60405180910390fd5b811561158757838573ffffffffffffffffffffffffffffffffffffffff168273ffffffffffffffffffffffffffffffffffffffff167f8c5be1e5ebec7d5bd14f71427d1e84f3dd0314c0f7b2291e5b200ac8c7c3b92560405160405180910390a45b505b836004600085815260200190815260200160002060006101000a81548173ffffffffffffffffffffffffffffffffffffffff021916908373ffffffffffffffffffffffffffffffffffffffff16021790555050505050565b6115ec838383611814565b6116a057600073ffffffffffffffffffffffffffffffffffffffff168373ffffffffffffffffffffffffffffffffffffffff160361166157806040517f7e2732890000000000000000000000000000000000000000000000000000000081526004016116589190611d09565b60405180910390fd5b81816040517f177e802f000000000000000000000000000000000000000000000000000000008152600401611697929190612274565b60405180910390fd5b505050565b6116af83836118d5565b6116bc6000848484611143565b505050565b600080600090507a184f03e93ff9f4daa797ed6e38ed64bf6a1f010000000000000000831061171f577a184f03e93ff9f4daa797ed6e38ed64bf6a1f010000000000000000838161171557611714612245565b5b0492506040810190505b6d04ee2d6d415b85acef8100000000831061175c576d04ee2d6d415b85acef8100000000838161175257611751612245565b5b0492506020810190505b662386f26fc10000831061178b57662386f26fc10000838161178157611780612245565b5b0492506010810190505b6305f5e10083106117b4576305f5e10083816117aa576117a9612245565b5b0492506008810190505b61271083106117d95761271083816117cf576117ce612245565b5b0492506004810190505b606483106117fc57606483816117f2576117f1612245565b5b0492506002810190505b600a831061180b576001810190505b80915050919050565b60008073ffffffffffffffffffffffffffffffffffffffff168373ffffffffffffffffffffffffffffffffffffffff16141580156118cc57508273ffffffffffffffffffffffffffffffffffffffff168473ffffffffffffffffffffffffffffffffffffffff16148061188d575061188c84846109c6565b5b806118cb57508273ffffffffffffffffffffffffffffffffffffffff166118b383610bf8565b73ffffffffffffffffffffffffffffffffffffffff16145b5b90509392505050565b600073ffffffffffffffffffffffffffffffffffffffff168273ffffffffffffffffffffffffffffffffffffffff16036119475760006040517f64a0ae9200000000000000000000000000000000000000000000000000000000815260040161193e9190611bf3565b60405180910390fd5b600061195583836000610c4f565b9050600073ffffffffffffffffffffffffffffffffffffffff168173ffffffffffffffffffffffffffffffffffffffff16146119c95760006040517f73c6ac6e0000000000000000000000000000000000000000000000000000000081526004016119c09190611bf3565b60405180910390fd5b505050565b6000604051905090565b600080fd5b600080fd5b60007fffffffff0000000000000000000000000000000000000000000000000000000082169050919050565b611a17816119e2565b8114611a2257600080fd5b50565b600081359050611a3481611a0e565b92915050565b600060208284031215611a5057611a4f6119d8565b5b6000611a5e84828501611a25565b91505092915050565b60008115159050919050565b611a7c81611a67565b82525050565b6000602082019050611a976000830184611a73565b92915050565b600081519050919050565b600082825260208201905092915050565b60005b83811015611ad7578082015181840152602081019050611abc565b60008484015250505050565b6000601f19601f8301169050919050565b6000611aff82611a9d565b611b098185611aa8565b9350611b19818560208601611ab9565b611b2281611ae3565b840191505092915050565b60006020820190508181036000830152611b478184611af4565b905092915050565b6000819050919050565b611b6281611b4f565b8114611b6d57600080fd5b50565b600081359050611b7f81611b59565b92915050565b600060208284031215611b9b57611b9a6119d8565b5b6000611ba984828501611b70565b91505092915050565b600073ffffffffffffffffffffffffffffffffffffffff82169050919050565b6000611bdd82611bb2565b9050919050565b611bed81611bd2565b82525050565b6000602082019050611c086000830184611be4565b92915050565b611c1781611bd2565b8114611c2257600080fd5b50565b600081359050611c3481611c0e565b92915050565b60008060408385031215611c5157611c506119d8565b5b6000611c5f85828601611c25565b9250506020611c7085828601611b70565b9150509250929050565b600080600060608486031215611c9357611c926119d8565b5b6000611ca186828701611c25565b9350506020611cb286828701611c25565b9250506040611cc386828701611b70565b9150509250925092565b600060208284031215611ce357611ce26119d8565b5b6000611cf184828501611c25565b91505092915050565b611d0381611b4f565b82525050565b6000602082019050611d1e6000830184611cfa565b92915050565b611d2d81611a67565b8114611d3857600080fd5b50565b600081359050611d4a81611d24565b92915050565b60008060408385031215611d6757611d666119d8565b5b6000611d7585828601611c25565b9250506020611d8685828601611d3b565b9150509250929050565b600080fd5b600080fd5b7f4e487b7100000000000000000000000000000000000000000000000000000000600052604160045260246000fd5b611dd282611ae3565b810181811067ffffffffffffffff82111715611df157611df0611d9a565b5b80604052505050565b6000611e046119ce565b9050611e108282611dc9565b919050565b600067ffffffffffffffff821115611e3057611e2f611d9a565b5b611e3982611ae3565b9050602081019050919050565b82818337600083830152505050565b6000611e68611e6384611e15565b611dfa565b905082815260208101848484011115611e8457611e83611d95565b5b611e8f848285611e46565b509392505050565b600082601f830112611eac57611eab611d90565b5b8135611ebc848260208601611e55565b91505092915050565b60008060008060808587031215611edf57611ede6119d8565b5b6000611eed87828801611c25565b9450506020611efe87828801611c25565b9350506040611f0f87828801611b70565b925050606085013567ffffffffffffffff811115611f3057611f2f6119dd565b5b611f3c87828801611e97565b91505092959194509250565b60008060408385031215611f5f57611f5e6119d8565b5b6000611f6d85828601611c25565b9250506020611f7e85828601611c25565b9150509250929050565b7f4e487b7100000000000000000000000000000000000000000000000000000000600052602260045260246000fd5b60006002820490506001821680611fcf57607f821691505b602082108103611fe257611fe1611f88565b5b50919050565b6000606082019050611ffd6000830186611be4565b61200a6020830185611cfa565b6120176040830184611be4565b949350505050565b7f4e6f7420617574686f72697a6564000000000000000000000000000000000000600082015250565b6000612055600e83611aa8565b91506120608261201f565b602082019050919050565b6000602082019050818103600083015261208481612048565b9050919050565b7f4e487b7100000000000000000000000000000000000000000000000000000000600052601160045260246000fd5b60006120c582611b4f565b91507fffffffffffffffffffffffffffffffffffffffffffffffffffffffffffffffff82036120f7576120f661208b565b5b600182019050919050565b600081905092915050565b600061211882611a9d565b6121228185612102565b9350612132818560208601611ab9565b80840191505092915050565b600061214a828561210d565b9150612156828461210d565b91508190509392505050565b600081519050919050565b600082825260208201905092915050565b600061218982612162565b612193818561216d565b93506121a3818560208601611ab9565b6121ac81611ae3565b840191505092915050565b60006080820190506121cc6000830187611be4565b6121d96020830186611be4565b6121e66040830185611cfa565b81810360608301526121f8818461217e565b905095945050505050565b60008151905061221281611a0e565b92915050565b60006020828403121561222e5761222d6119d8565b5b600061223c84828501612203565b91505092915050565b7f4e487b7100000000000000000000000000000000000000000000000000000000600052601260045260246000fd5b60006040820190506122896000830185611be4565b6122966020830184611cfa565b939250505056fea264697066735822122051f2f20fc2a6d8c4f1799b2cd9c2f1784a606a8bb849e056abc4df5b21ff375c64736f6c63430008180033",
  "linkReferences": {},
  "deployedLinkReferences": {}
}